:100000000C9484010C94A1010C94A1010C94A10105
:100010000C94A1010C94A1010C94A1010C94A101D8
:100020000C94A1010C94A1010C94A1010C94A101C8
:100030000C94A1010C94A1010C94A1010C94A101B8
:100040000C94A1010C94A1010C94A1010C94A101A8
:100050000C94A1010C94A1010C94A1010C94A10198
:100060000C94A1010C94A101BC5F9C60A46184620A
:10007000B6639664B0659F66B567FFFF0000000039
:1000800000000000002F000000000700070000141F
:100090007F147F1400242A7F2A120062640813232D
:1000A00000364955225000000503000000001C22C4
:1000B0004100000041221C000014083E0814000802
:1000C000083E0808000000A06000000808080808B2
:1000D000000060600000002010080402003E51494A
:1000E000453E0000427F40000042615149460021E8
:1000F00041454B31001814127F1000274545453902
:10010000003C4A494930000171090503003649495C
:10011000493600064949291E000036360000000015
:100120005636000000081422410000141414141460
:100130000000412214080002015109060032495909
:10014000513E007C1211127C007F49494936003E25
:1001500041414122007F4141221C007F49494941E0
:10016000007F09090901003E4149497A007F0808DA
:10017000087F0000417F4100002040413F01007F97
:1001800008142241007F40404040007F020C027F63
:10019000007F0408107F003E4141413E007F090975
:1001A0000906003E4151215E007F0919294600469B
:1001B000494949310001017F0101003F4040403F72
:1001C000001F2040201F003F4038403F00631408BC
:1001D0001463000708700807006151494543000097
:1001E0007F41410000552A552A55000041417F00BA
:1001F00000040201020400404040404000000102AF
:100200000400002054545478007F48444438003897
:100210004444442000384444487F0038545454181F
:1002200000087E0901020018A4A4A47C007F080431
:1002300004780000447D4000004080847D00007F01
:10024000102844000000417F4000007C041804781E
:10025000007C0804047800384444443800FC24241A
:1002600024180018242418FC007C08040408004802
:100270005454542000043F444020003C4040207C23
:10028000001C2040201C003C4030403C0044281012
:100290002844001CA0A0A07C004464544C440000EE
:1002A000087741000000006300000000417708006B
:1002B000000804080804003A4040207A003D40400D
:1002C000403D002154545479007D1211127D0039B3
:1002D00044444439003D4242423D000205020000D0
:1002E000007E01495573007C1010081CAE2000B040
:1002F000C8001040813FA1A6A83FA4D300D5F0D9E3
:1003000022DA12DB208D140011241FBECFEFD8E0BB
:10031000DEBFCDBF11E0A0E0B1E0E6EBFCE002C043
:1003200005900D92AE30B107D9F721E0AEE0B1E013
:1003300001C01D92A131B207E1F70E944D060C9455
:1003400059060C9400001092B90088E48093B8001C
:1003500084E08093BC00089594EA9093BC0020E46C
:1003600031E003C02150310999F09091BC0097FF12
:10037000F9CF8093BB0084E88093BC0080E491E0D7
:1003800002C0019759F02091BC0027FFFACF0895D1
:1003900080910E01816080930E01089580910E017D
:1003A000826080930E01089584E98093BC000895D3
:1003B0008093BB0084E88093BC0080E491E002C09D
:1003C000019729F02091BC0027FFFACF0895809172
:1003D0000E01846080930E01089584EC8093BC002C
:1003E00080E491E002C0019739F02091BC0027FF22
:1003F000FACF8091BB00089580910E0188608093B0
:100400000E0180E0089584E88093BC0080E491E0D0
:1004100002C0019739F02091BC0027FFFACF8091EC
:10042000BB00089580910E01806180930E0180E0F1
:100430000895FF920F931F93CF93DF93F82E092F08
:10044000162F88E70E94AC0180E00E94D80111239A
:1004500079F0CF2DD02F6FEF610F8E010F5F1F4FFF
:10046000060F111D89910E94D801C017D107D1F73D
:10047000DF91CF911F910F91FF900C94D401EF92D7
:10048000FF920F931F93CF93DF937C018B0188E73B
:100490000E94AC0180E40E94D8010115110549F0C9
:1004A000E7010E0D1F1D89910E94D801C017D107C9
:1004B000D1F7DF91CF911F910F91FF90EF900C94A6
:1004C000D401CF92DF92EF92FF921F93CF93DF93ED
:1004D00000D000D0CDB7DEB7982F990F890F880FC5
:1004E000813810F4683060F00F900F900F900F90EB
:1004F000DF91CF911F91FF90EF90DF90CF90089503
:1005000080930F016093100110EB160F198391E295
:100510009A838B838FE78C8388E70E94AC0180E00D
:100520000E94D8017E0182E0E80EF11C6E01E5E038
:10053000CE0ED11C03C0F70111917F01812F0E94C3
:10054000D801EC14FD04B9F70F900F900F900F90A5
:10055000DF91CF911F91FF90EF90DF90CF900C949F
:10056000D401CF92DF92EF92FF921F93CF93DF934C
:1005700000D000D0CDB7DEB7813810F4683060F01D
:100580000F900F900F900F90DF91CF911F91FF90E0
:10059000EF90DF90CF90089580930F01609310014A
:1005A00010EB160F198391E29A838B838FE78C836C
:1005B00088E70E94AC0180E00E94D8017E0182E0C1
:1005C000E80EF11C6E01E5E0CE0ED11C03C0F70170
:1005D00011917F01812F0E94D801EC14FD04B9F71D
:1005E0000F900F900F900F90DF91CF911F91FF9080
:1005F000EF90DF90CF900C94D4017F928F929F92D6
:10060000AF92BF92CF92DF92EF92FF920F931F9320
:10061000CF93DF93CDB7DEB7C458D1090FB6F894A6
:10062000DEBF0FBECDBFCE0101965C0180E8F501B3
:1006300011928A95E9F7912CCE018F579F4F7C013B
:1006400081E2782E9FE7892E670194E0C90ED11CC4
:1006500010920F019092100180EB890DF7018083B9
:1006600071821282838288E70E94AC0180E00E943E
:10067000D8018701F80181918F010E94D8010C15E2
:100680001D05C1F70E94D40188E70E94AC0180E4F7
:100690000E94D8018501F80181918F010E94D80143
:1006A000E016F106C1F70E94D4019394F8E09F127E
:1006B000CFCF10920F011092100180EBF7018083D1
:1006C00081E2818312828FE7838388E70E94AC01F5
:1006D00080E00E94D80187010C5F1F4FF7018191D4
:1006E0007F010E94D8010E151F05C1F70E94D40199
:1006F000CC57DF4F0FB6F894DEBF0FBECDBFDF91F2
:10070000CF911F910F91FF90EF90DF90CF90BF900E
:10071000AF909F908F907F900895EF92FF920F93EC
:100720001F93CF93DF93CDB7DEB76C970FB6F894D6
:10073000DEBF0FBECDBFF82E0E94A301ECEEF2E0AB
:100740008E010F5F1F4F9E01245E3F4FD801949191
:100750009D933196A217B307D1F7FC8E88E70E94CC
:10076000AC0180E00E94D80178018CE1E80EF11C18
:10077000F80181918F010E94D801E016F106C1F7BE
:100780000E94D4016C960FB6F894DEBF0FBECDBFA9
:10079000DF91CF911F910F91FF90EF900C94FD028C
:1007A000EF92FF920F931F93CF93DF9300D000D06F
:1007B000CDB7DEB710920F011092100180EB898344
:1007C00081E28A831B828FE78C8388E70E94AC01D9
:1007D00080E00E94D8018E010E5F1F4F7E0185E0F0
:1007E000E80EF11C80EB03C0F80181918F010E949B
:1007F000D8010E151F05C1F70F900F900F900F90A5
:10080000DF91CF911F910F91FF90EF900C94D40145
:10081000CF93C6EA813009F4C7EA88E70E94AC01A9
:1008200080E00E94D8018C2F0E94D801CF910C94B7
:10083000D401CF93CFEA813009F4CEEA88E70E9451
:10084000AC0180E00E94D8018C2F0E94D801CF918A
:100850000C94D401CF93C82F88E70E94AC0180E0AC
:100860000E94D80181E80E94D8018C2F0E94D801F3
:10087000CF910C94D4013F924F925F926F927F92EE
:100880008F929F92AF92BF92CF92DF92EF92FF92A0
:100890000F931F93CF93DF93CDB7DEB76E970FB64D
:1008A000F894DEBF0FBECDBF8A3009F444C0ECF52A
:1008B000883009F45DC0893009F042C090910F0181
:1008C00080910001282F30E0220F331F220F331FA9
:1008D00060911001F901E90FF11D45E150E0421B63
:1008E000530BE417F50708F0C3C0880F880F890F72
:1008F000982F990F890F880F6E960FB6F894DEBF68
:100900000FBECDBFDF91CF911F910F91FF90EF9060
:10091000DF90CF90BF90AF909F908F907F906F901F
:100920005F904F903F900C94B1028D30E9F560914B
:10093000100180E0E1CF60911001673008F49AC0A7
:100940006E960FB6F894DEBF0FBECDBFDF91CF918C
:100950001F910F91FF90EF90DF90CF90BF90AF90DD
:100960009F908F907F906F905F904F903F900895F1
:1009700080910F0190910001891B982F990F890F89
:1009800060911001880F0E94B10280E20E943B0436
:1009900080910F0190910001891B982F990F890F69
:1009A00060911001880FA8CF50910F015A3740F67F
:1009B000803234F28052682F70E0E9E6F0E09491E2
:1009C0009617170609F034F5CF01E491EF3F09F1CE
:1009D000E8E6F0E0E491E052FF0B6E177F0709F4C0
:1009E00035C140E00AC0F901E859FF4FE491E052F7
:1009F000FF0B6E177F0709F429C14F5F242F30E0EA
:100A0000220F331FC90187599F4FFC01A491AF3FAB
:100A100051F78FEF909100019230B1F1B6E08B9FCA
:100A2000F0011124E458FF4F8E010F5F1F4F7E012C
:100A300027E0E20EF11CD80184918D933196AE151A
:100A4000BF05D1F788E70E94AC0180E40E94D8017D
:100A5000D8018D918D010E94D8010E151F05C1F797
:100A60000E94D40180910F018A5F80930F0168CFAB
:100A70008EE742CF80910001680F90910F01892F7E
:100A8000880F890F880F38CF545F513808F058CF3E
:100A90008E01035F1F4F1E8F0D8F16E0819FC001D7
:100AA00011249C0124583F4F59014E0139E1830E16
:100AB000911CED8CFE8CA1E0B0E0F7011192119237
:100AC0007F01F501649170E050E040E090E080E04B
:100AD000F70132979B01082E02C0359527950A949D
:100AE000E2F720FF1AC0C080D1809D01042E02C011
:100AF000220F331F0A94E2F72C293D296A010FEFD8
:100B0000C01AD00A8D0102C0000F111FCA94E2F76B
:100B10006801202B3D293183208301964E5F5F4F72
:100B200088309105B9F61FEFA11AB10AE814F9044B
:100B300021F69E012F5F3F4F6901D901ED8DFE8D9A
:100B4000808132968C9311968C9311971296E815AA
:100B5000F905B1F788E70E94AC0180E40E94D80152
:100B600036013CE0630E711C7601D7018D917D0149
:100B70000E94D8016E147F04C1F70E94D4018091B5
:100B8000100191EB392E380E398E81E28A8F8091D7
:100B90000F018B8F8FE78C8F88E70E94AC0180E07C
:100BA0000E94D8012E01BAE14B0E511C5E01EDE10D
:100BB000AE0EB11C720103C0D7013D907D01832DA3
:100BC0000E94D801AE14BF04B9F70E94D401F60107
:100BD000AD8DBE8D11968C9111971296BE8FAD8FF3
:100BE000808381833296A815B90591F788E70E9422
:100BF000AC0180E40E94D801F60181916F010E944E
:100C0000D801C614D704C1F70E94D4011091100175
:100C10001055198F80910F01845F8B8F88E70E9498
:100C2000AC0180E00E94D80103C0D2011D912D01CA
:100C3000812F0E94D8014E145F04B9F70E94D4019D
:100C400080910F01845F80930F017ACEFC01849123
:100C5000E1CE809300010895CF93DF93EC0188816A
:100C6000882331F021960E943B0489918111FBCFAA
:100C7000DF91CF910895CF93DF93FC01EC01219692
:100C80008491882339F00E943B04FE0184912196CF
:100C90008111F9CFDF91CF9108958FEA0E948D03E2
:100CA00081E091E00E942C0662E080E00E946102F7
:060CB000FFCFF894FFCF16
:0E0CB600014144432072656164696E673A0033
:00000001FF
