:100000000C9484010C94A1010C94A1010C94A10105
:100010000C94A1010C94A1010C94A1010C94A101D8
:100020000C94A1010C94A1010C94A1010C94A101C8
:100030000C94A1010C94A1010C94A1010C94A101B8
:100040000C94A1010C94A1010C94A1010C94A101A8
:100050000C94A1010C94A1010C94A1010C94A10198
:100060000C94A1010C94A101BC5F9C60A46184620A
:10007000B6639664B0659F66B567FFFF0000000039
:1000800000000000002F000000000700070000141F
:100090007F147F1400242A7F2A120062640813232D
:1000A00000364955225000000503000000001C22C4
:1000B0004100000041221C000014083E0814000802
:1000C000083E0808000000A06000000808080808B2
:1000D000000060600000002010080402003E51494A
:1000E000453E0000427F40000042615149460021E8
:1000F00041454B31001814127F1000274545453902
:10010000003C4A494930000171090503003649495C
:10011000493600064949291E000036360000000015
:100120005636000000081422410000141414141460
:100130000000412214080002015109060032495909
:10014000513E007C1211127C007F49494936003E25
:1001500041414122007F4141221C007F49494941E0
:10016000007F09090901003E4149497A007F0808DA
:10017000087F0000417F4100002040413F01007F97
:1001800008142241007F40404040007F020C027F63
:10019000007F0408107F003E4141413E007F090975
:1001A0000906003E4151215E007F0919294600469B
:1001B000494949310001017F0101003F4040403F72
:1001C000001F2040201F003F4038403F00631408BC
:1001D0001463000708700807006151494543000097
:1001E0007F41410000552A552A55000041417F00BA
:1001F00000040201020400404040404000000102AF
:100200000400002054545478007F48444438003897
:100210004444442000384444487F0038545454181F
:1002200000087E0901020018A4A4A47C007F080431
:1002300004780000447D4000004080847D00007F01
:10024000102844000000417F4000007C041804781E
:10025000007C0804047800384444443800FC24241A
:1002600024180018242418FC007C08040408004802
:100270005454542000043F444020003C4040207C23
:10028000001C2040201C003C4030403C0044281012
:100290002844001CA0A0A07C004464544C440000EE
:1002A000087741000000006300000000417708006B
:1002B000000804080804003A4040207A003D40400D
:1002C000403D002154545479007D1211127D0039B3
:1002D00044444439003D4242423D000205020000D0
:1002E000007E01495573007C1010081CAE2000B040
:1002F000C8001040813FA1A6A83FA4D300D5F0D9E3
:1003000022DA12DB208D140011241FBECFEFD8E0BB
:10031000DEBFCDBF11E0A0E0B1E0E6EDFEE002C03F
:1003200005900D92AE33B107D9F721E0AEE3B1E00D
:1003300001C01D92A837B207E1F70E94EC060C94A9
:1003400069070C94000010927301109272011092D0
:1003500071011092700181E080937401209895B131
:10036000809174018095892385B9E1E8F0E080816E
:100370008068808380818160808381E0089584B17A
:1003800090917401892B84B995B180917401809505
:10039000892385B988EE95E09A95F1F700008150A0
:1003A000D1F794B1809174018095892384B995B176
:1003B000809174018095892385B9B59A81E008956B
:1003C00094B120917401922B94B925B1909174014C
:1003D0009095922395B9882331F095E09A95F1F79D
:1003E00000008150D1F794B18091740180958923E8
:1003F00084B995B1809174018095892385B9B59AA6
:100400000895CF93DF93892B91F5809181008F7BA5
:1004100080938100B59BFECFC0918600D09187006C
:100420004AE050E06EE371E0CE010E94340764E0E0
:1004300080E00E9400038EE391E00E94CB06809151
:10044000810090E4892780938100B59AB59BFECF07
:1004500080918600909187008C179D0770F42197FA
:100460009E01281B390BC901DF91CF91089580911E
:100470008100806480938100CDCF8C1B9D0BDF9128
:10048000CF9108951092B90088E48093B80084E079
:100490008093BC00089594EA9093BC0020E431E07E
:1004A00003C02150310999F09091BC0097FFF9CF1A
:1004B0008093BB0084E88093BC0080E491E002C09C
:1004C000019759F02091BC0027FFFACF0895809141
:1004D0007501816080937501089580917501826036
:1004E00080937501089584E98093BC0008958093FA
:1004F000BB0084E88093BC0080E491E002C00197D7
:1005000029F02091BC0027FFFACF08958091750152
:10051000846080937501089584EC8093BC0080E42E
:1005200091E002C0019739F02091BC0027FFFACF7B
:100530008091BB000895809175018860809375015A
:1005400080E0089584E88093BC0080E491E002C0DC
:10055000019739F02091BC0027FFFACF8091BB00B2
:1005600008958091750180618093750180E0089500
:10057000FF920F931F93CF93DF93F82E092F162F1F
:1005800088E70E944B0280E00E947702112379F0F5
:10059000CF2DD02F6FEF610F8E010F5F1F4F060F12
:1005A000111D89910E947702C017D107D1F7DF9101
:1005B000CF911F910F91FF900C947302EF92FF92D5
:1005C0000F931F93CF93DF937C018B0188E70E94E9
:1005D0004B0280E40E9477020115110549F0E70102
:1005E0000E0D1F1D89910E947702C017D107D1F708
:1005F000DF91CF911F910F91FF90EF900C947302B8
:10060000CF92DF92EF92FF921F93CF93DF9300D0B0
:1006100000D0CDB7DEB7982F990F890F880F81389A
:1006200010F4683060F00F900F900F900F90DF91F2
:10063000CF911F91FF90EF90DF90CF90089580931E
:1006400076016093770110EB160F198391E29A837C
:100650008B838FE78C8388E70E944B0280E00E94A7
:1006600077027E0182E0E80EF11C6E01E5E0CE0E1D
:10067000D11C03C0F70111917F01812F0E947702E5
:10068000EC14FD04B9F70F900F900F900F90DF91CD
:10069000CF911F91FF90EF90DF90CF900C94730259
:1006A000CF92DF92EF92FF921F93CF93DF9300D010
:1006B00000D0CDB7DEB7813810F4683060F00F900D
:1006C0000F900F900F90DF91CF911F91FF90EF90BF
:1006D000DF90CF900895809376016093770110EBBF
:1006E000160F198391E29A838B838FE78C8388E7B7
:1006F0000E944B0280E00E9477027E0182E0E80EB9
:10070000F11C6E01E5E0CE0ED11C03C0F701119182
:100710007F01812F0E947702EC14FD04B9F70F903E
:100720000F900F900F90DF91CF911F91FF90EF905E
:10073000DF90CF900C9473027F928F929F92AF9232
:10074000BF92CF92DF92EF92FF920F931F93CF93BE
:10075000DF93CDB7DEB7C458D1090FB6F894DEBF2A
:100760000FBECDBFCE0101965C0180E8F50111926C
:100770008A95E9F7912CCE018F579F4F7C0181E23A
:10078000782E9FE7892E670194E0C90ED11C109244
:1007900076019092770180EB890DF7018083718259
:1007A0001282838288E70E944B0280E00E947702D7
:1007B0008701F80181918F010E9477020C151D05B8
:1007C000C1F70E94730288E70E944B0280E40E94F6
:1007D00077028501F80181918F010E947702E0166E
:1007E000F106C1F70E9473029394F8E09F12CFCFF5
:1007F000109276011092770180EBF701808381E2FD
:10080000818312828FE7838388E70E944B0280E016
:100810000E94770287010C5F1F4FF70181917F01D2
:100820000E9477020E151F05C1F70E947302CC5774
:10083000DF4F0FB6F894DEBF0FBECDBFDF91CF9173
:100840001F910F91FF90EF90DF90CF90BF90AF90EE
:100850009F908F907F900895EF92FF920F931F9338
:10086000CF93DF93CDB7DEB76C970FB6F894DEBFAA
:100870000FBECDBFF82E0E944202ECEEF2E08E01D8
:100880000F5F1F4F9E01245E3F4FD80194919D93AF
:100890003196A217B307D1F7FC8E88E70E944B026E
:1008A00080E00E94770278018CE1E80EF11CF801EB
:1008B00081918F010E947702E016F106C1F70E9434
:1008C00073026C960FB6F894DEBF0FBECDBFDF91FA
:1008D000CF911F910F91FF90EF900C949C03EF929A
:1008E000FF920F931F93CF93DF9300D000D0CDB72B
:1008F000DEB7109276011092770180EB898381E256
:100900008A831B828FE78C8388E70E944B0280E0FA
:100910000E9477028E010E5F1F4F7E0185E0E80E78
:10092000F11C80EB03C0F80181918F010E947702D6
:100930000E151F05C1F70F900F900F900F90DF91CC
:10094000CF911F910F91FF90EF900C947302CF9372
:10095000C6EA813009F4C7EA88E70E944B0280E0CA
:100960000E9477028C2F0E947702CF910C94730221
:10097000CF93CFEA813009F4CEEA88E70E944B0298
:1009800080E00E9477028C2F0E947702CF910C9416
:100990007302CF93C82F88E70E944B0280E00E9429
:1009A000770281E80E9477028C2F0E947702CF9114
:1009B0000C9473023F924F925F926F927F928F924C
:1009C0009F92AF92BF92CF92DF92EF92FF920F93DE
:1009D0001F93CF93DF93CDB7DEB76E970FB6F89422
:1009E000DEBF0FBECDBF8A3009F444C0ECF58830BD
:1009F00009F45DC0893009F042C090917601809180
:100A00000201282F30E0220F331F220F331F609185
:100A10007701F901E90FF11D45E150E0421B530B4D
:100A2000E417F50708F0C3C0880F880F890F982FC7
:100A3000990F890F880F6E960FB6F894DEBF0FBE20
:100A4000CDBFDF91CF911F910F91FF90EF90DF907D
:100A5000CF90BF90AF909F908F907F906F905F905E
:100A60004F903F900C9450038D30E9F560917701E1
:100A700080E0E1CF60917701673008F49AC06E960C
:100A80000FB6F894DEBF0FBECDBFDF91CF911F919F
:100A90000F91FF90EF90DF90CF90BF90AF909F901D
:100AA0008F907F906F905F904F903F9008958091CE
:100AB000760190910201891B982F990F890F6091FF
:100AC0007701880F0E94500380E20E94DA0480912F
:100AD000760190910201891B982F990F890F6091DF
:100AE0007701880FA8CF509176015A3740F68032AF
:100AF00034F28052682F70E0E9E6F0E094919617A6
:100B0000170609F034F5CF01E491EF3F09F1E8E66B
:100B1000F0E0E491E052FF0B6E177F0709F435C156
:100B200040E00AC0F901E859FF4FE491E052FF0BA1
:100B30006E177F0709F429C14F5F242F30E0220F81
:100B4000331FC90187599F4FFC01A491AF3F51F753
:100B50008FEF909102019230B1F1B6E08B9FF001DE
:100B60001124E458FF4F8E010F5F1F4F7E0127E0D5
:100B7000E20EF11CD80184918D933196AE15BF051C
:100B8000D1F788E70E944B0280E40E947702D801E7
:100B90008D918D010E9477020E151F05C1F70E94ED
:100BA0007302809176018A5F8093760168CF8EE729
:100BB00042CF80910201680F90917601892F880FB2
:100BC000890F880F38CF545F513808F058CF8E0105
:100BD000035F1F4F1E8F0D8F16E0819FC0011124F0
:100BE0009C0124583F4F59014E0139E1830E911C5D
:100BF000ED8CFE8CA1E0B0E0F701119211927F0123
:100C0000F501649170E050E040E090E080E0F70191
:100C100032979B01082E02C0359527950A94E2F77A
:100C200020FF1AC0C080D1809D01042E02C0220F77
:100C3000331F0A94E2F72C293D296A010FEFC01AED
:100C4000D00A8D0102C0000F111FCA94E2F768019B
:100C5000202B3D293183208301964E5F5F4F8830E2
:100C60009105B9F61FEFA11AB10AE814F90421F6AB
:100C70009E012F5F3F4F6901D901ED8DFE8D80816F
:100C800032968C9311968C9311971296E815F9056C
:100C9000B1F788E70E944B0280E40E947702360198
:100CA0003CE0630E711C7601D7018D917D010E949D
:100CB00077026E147F04C1F70E947302809177015E
:100CC00091EB392E380E398E81E28A8F8091760130
:100CD0008B8F8FE78C8F88E70E944B0280E00E9409
:100CE00077022E01BAE14B0E511C5E01EDE1AE0E12
:100CF000B11C720103C0D7013D907D01832D0E947C
:100D00007702AE14BF04B9F70E947302F601AD8DED
:100D1000BE8D11968C9111971296BE8FAD8F8083E8
:100D200081833296A815B90591F788E70E944B0296
:100D300080E40E947702F60181916F010E947702A0
:100D4000C614D704C1F70E947302109177011055A1
:100D5000198F80917601845F8B8F88E70E944B0208
:100D600080E00E94770203C0D2011D912D01812FE6
:100D70000E9477024E145F04B9F70E9473028091BB
:100D80007601845F809376017ACEFC018491E1CE76
:100D9000809302010895CF93DF93EC01888188232B
:100DA00031F021960E94DA0489918111FBCFDF9105
:100DB000CF910895CF93DF93FC01EC0121968491AC
:100DC000882339F00E94DA04FE0184912196811172
:100DD000F9CFDF91CF910895CDB7DEB7C456D109D1
:100DE0000FB6F894DEBF0FBECDBF80E1E3E0F1E0C7
:100DF000DE01119601900D928A95E1F7FE01719640
:100E000082E2DF011D928A95E9F78FEA0E942C04A5
:100E10000E94A30185E391E00E94CB0662E080E09E
:100E20000E940003CE0101960E94CB0682E390E06F
:100E30000E94E001BAE6BA95F1F700C090E080E0C8
:100E40000E9401024AE0BE016D5C7F4F0E942907AB
:100E5000FFCFBB274A3031F4992322F4BDE29095AD
:100E600081959F4F0C9440074532510520F4423044
:100E700010F00C943F07FB011082CB010895BB27B3
:100E8000FB015527AA27880F991FAA1FA41710F046
:100E9000A41B83955051B9F7A05DAA3308F0A95D52
:100EA000A193009779F7B111B1931192CB010C94F2
:100EB0005907DC01FC01672F71917723E1F7329725
:100EC00004C07C916D9370836291AE17BF07C8F325
:060ED0000895F894FFCF25
:100ED60063000150756C6C4C6F77282920646F6E27
:100EE600652E000000000000000000000000000069
:100EF60000000000000000000000000000000000EC
:0E0F06000000000000446874207465737400DD
:00000001FF
