:100000000C9484010C94A1010C94A1010C94A10105
:100010000C94A1010C94A1010C94A1010C94A101D8
:100020000C94A1010C94A1010C94A1010C94A101C8
:100030000C94A1010C94A1010C94A1010C94A101B8
:100040000C94A1010C94A1010C94A1010C94A101A8
:100050000C94A1010C94A1010C94A1010C94A10198
:100060000C94A1010C94A101BC5F9C60A46184620A
:10007000B6639664B0659F66B567FFFF0000000039
:1000800000000000002F000000000700070000141F
:100090007F147F1400242A7F2A120062640813232D
:1000A00000364955225000000503000000001C22C4
:1000B0004100000041221C000014083E0814000802
:1000C000083E0808000000A06000000808080808B2
:1000D000000060600000002010080402003E51494A
:1000E000453E0000427F40000042615149460021E8
:1000F00041454B31001814127F1000274545453902
:10010000003C4A494930000171090503003649495C
:10011000493600064949291E000036360000000015
:100120005636000000081422410000141414141460
:100130000000412214080002015109060032495909
:10014000513E007C1211127C007F49494936003E25
:1001500041414122007F4141221C007F49494941E0
:10016000007F09090901003E4149497A007F0808DA
:10017000087F0000417F4100002040413F01007F97
:1001800008142241007F40404040007F020C027F63
:10019000007F0408107F003E4141413E007F090975
:1001A0000906003E4151215E007F0919294600469B
:1001B000494949310001017F0101003F4040403F72
:1001C000001F2040201F003F4038403F00631408BC
:1001D0001463000708700807006151494543000097
:1001E0007F41410000552A552A55000041417F00BA
:1001F00000040201020400404040404000000102AF
:100200000400002054545478007F48444438003897
:100210004444442000384444487F0038545454181F
:1002200000087E0901020018A4A4A47C007F080431
:1002300004780000447D4000004080847D00007F01
:10024000102844000000417F4000007C041804781E
:10025000007C0804047800384444443800FC24241A
:1002600024180018242418FC007C08040408004802
:100270005454542000043F444020003C4040207C23
:10028000001C2040201C003C4030403C0044281012
:100290002844001CA0A0A07C004464544C440000EE
:1002A000087741000000006300000000417708006B
:1002B000000804080804003A4040207A003D40400D
:1002C000403D002154545479007D1211127D0039B3
:1002D00044444439003D4242423D000205020000D0
:1002E000007E01495573007C1010081CAE2000B040
:1002F000C8001040813FA1A6A83FA4D300D5F0D9E3
:1003000022DA12DB208D140011241FBECFEFD8E0BB
:10031000DEBFCDBF11E0A0E0B1E0E2ECFCE002C046
:1003200005900D92A231B107D9F721E0A2E1B1E029
:1003300001C01D92A531B207E1F70E9453060C944B
:100340005F060C9400003A98429A81E0089581E09B
:1003500008951092B90088E48093B80084E08093F7
:10036000BC00089594EA9093BC0020E431E003C0FF
:100370002150310999F09091BC0097FFF9CF8093FB
:10038000BB0084E88093BC0080E491E002C0019748
:1003900059F02091BC0027FFFACF089580911201F7
:1003A0008160809312010895809112018260809390
:1003B0001201089584E98093BC0008958093BB00E6
:1003C00084E88093BC0080E491E002C0019729F0AA
:1003D0002091BC0027FFFACF08958091120184601C
:1003E00080931201089584EC8093BC0080E491E036
:1003F00002C0019739F02091BC0027FFFACF80910D
:10040000BB0008958091120188608093120180E002
:10041000089584E88093BC0080E491E002C00197D5
:1004200039F02091BC0027FFFACF8091BB000895DE
:100430008091120180618093120180E00895FF9203
:100440000F931F93CF93DF93F82E092F162F88E772
:100450000E94B20180E00E94DE01112379F0CF2DCD
:10046000D02F6FEF610F8E010F5F1F4F060F111D11
:1004700089910E94DE01C017D107D1F7DF91CF919A
:100480001F910F91FF900C94DA01EF92FF920F935E
:100490001F93CF93DF937C018B0188E70E94B20109
:1004A00080E40E94DE010115110549F0E7010E0DFF
:1004B0001F1D89910E94DE01C017D107D1F7DF917E
:1004C000CF911F910F91FF90EF900C94DA01CF9292
:1004D000DF92EF92FF921F93CF93DF9300D000D073
:1004E000CDB7DEB7982F990F890F880F813810F498
:1004F000683060F00F900F900F900F90DF91CF91C8
:100500001F91FF90EF90DF90CF900895809313019B
:100510006093140110EB160F198391E29A838B8379
:100520008FE78C8388E70E94B20180E00E94DE01A1
:100530007E0182E0E80EF11C6E01E5E0CE0ED11CDA
:1005400003C0F70111917F01812F0E94DE01EC149D
:10055000FD04B9F70F900F900F900F90DF91CF919E
:100560001F91FF90EF90DF90CF900C94DA01CF9223
:10057000DF92EF92FF921F93CF93DF9300D000D0D2
:10058000CDB7DEB7813810F4683060F00F900F906F
:100590000F900F90DF91CF911F91FF90EF90DF9020
:1005A000CF900895809313016093140110EB160F00
:1005B000198391E29A838B838FE78C8388E70E946B
:1005C000B20180E00E94DE017E0182E0E80EF11CB3
:1005D0006E01E5E0CE0ED11C03C0F70111917F0141
:1005E000812F0E94DE01EC14FD04B9F70F900F90EB
:1005F0000F900F90DF91CF911F91FF90EF90DF90C0
:10060000CF900C94DA017F928F929F92AF92BF921B
:10061000CF92DF92EF92FF920F931F93CF93DF93CE
:10062000CDB7DEB7C458D1090FB6F894DEBF0FBE00
:10063000CDBFCE0101965C0180E8F50111928A954B
:10064000E9F7912CCE018F579F4F7C0181E2782EE4
:100650009FE7892E670194E0C90ED11C1092130107
:100660009092140180EB890DF701808371821282D0
:10067000838288E70E94B20180E00E94DE01870148
:10068000F80181918F010E94DE010C151D05C1F753
:100690000E94DA0188E70E94B20180E40E94DE0134
:1006A0008501F80181918F010E94DE01E016F106BB
:1006B000C1F70E94DA019394F8E09F12CFCF109215
:1006C00013011092140180EBF701808381E2818392
:1006D00012828FE7838388E70E94B20180E00E9444
:1006E000DE0187010C5F1F4FF70181917F010E949E
:1006F000DE010E151F05C1F70E94DA01CC57DF4F4E
:100700000FB6F894DEBF0FBECDBFDF91CF911F9122
:100710000F91FF90EF90DF90CF90BF90AF909F90A0
:100720008F907F900895EF92FF920F931F93CF9336
:10073000DF93CDB7DEB76C970FB6F894DEBF0FBE70
:10074000CDBFF82E0E94A901ECEEF2E08E010F5F02
:100750001F4F9E01245E3F4FD80194919D93319687
:10076000A217B307D1F7FC8E88E70E94B20180E0A0
:100770000E94DE0178018CE1E80EF11CF801819104
:100780008F010E94DE01E016F106C1F70E94DA0136
:100790006C960FB6F894DEBF0FBECDBFDF91CF9140
:1007A0001F910F91FF90EF900C940303EF92FF9233
:1007B0000F931F93CF93DF9300D000D0CDB7DEB758
:1007C000109213011092140180EB898381E28A83D5
:1007D0001B828FE78C8388E70E94B20180E00E9431
:1007E000DE018E010E5F1F4F7E0185E0E80EF11CD9
:1007F00080EB03C0F80181918F010E94DE010E158C
:100800001F05C1F70F900F900F900F90DF91CF91C0
:100810001F910F91FF90EF900C94DA01CF93C6EAED
:10082000813009F4C7EA88E70E94B20180E00E94A3
:10083000DE018C2F0E94DE01CF910C94DA01CF9360
:10084000CFEA813009F4CEEA88E70E94B20180E065
:100850000E94DE018C2F0E94DE01CF910C94DA0100
:10086000CF93C82F88E70E94B20180E00E94DE018A
:1008700081E80E94DE018C2F0E94DE01CF910C9452
:10088000DA013F924F925F926F927F928F929F9286
:10089000AF92BF92CF92DF92EF92FF920F931F938E
:1008A000CF93DF93CDB7DEB76E970FB6F894DEBF68
:1008B0000FBECDBF8A3009F444C0ECF5883009F48E
:1008C0005DC0893009F042C0909113018091000110
:1008D000282F30E0220F331F220F331F60911401A5
:1008E000F901E90FF11D45E150E0421B530BE417FC
:1008F000F50708F0C3C0880F880F890F982F990F4C
:10090000890F880F6E960FB6F894DEBF0FBECDBF6D
:10091000DF91CF911F910F91FF90EF90DF90CF90DB
:10092000BF90AF909F908F907F906F905F904F900F
:100930003F900C94B7028D30E9F56091140180E08E
:10094000E1CF60911401673008F49AC06E960FB63B
:10095000F894DEBF0FBECDBFDF91CF911F910F91F5
:10096000FF90EF90DF90CF90BF90AF909F908F90CF
:100970007F906F905F904F903F900895809113010A
:1009800090910001891B982F990F890F6091140194
:10099000880F0E94B70280E20E94410480911301F7
:1009A00090910001891B982F990F890F6091140174
:1009B000880FA8CF509113015A3740F6803234F295
:1009C0008052682F70E0E9E6F0E0949196171706E0
:1009D00009F034F5CF01E491EF3F09F1E8E6F0E0EA
:1009E000E491E052FF0B6E177F0709F435C140E038
:1009F0000AC0F901E859FF4FE491E052FF0B6E176E
:100A00007F0709F429C14F5F242F30E0220F331FE5
:100A1000C90187599F4FFC01A491AF3F51F78FEF58
:100A2000909100019230B1F1B6E08B9FF00111245A
:100A3000E458FF4F8E010F5F1F4F7E0127E0E20E4B
:100A4000F11CD80184918D933196AE15BF05D1F775
:100A500088E70E94B20180E40E94DE01D8018D91F6
:100A60008D010E94DE010E151F05C1F70E94DA01FB
:100A7000809113018A5F8093130168CF8EE742CF84
:100A800080910001680F90911301892F880F890FC1
:100A9000880F38CF545F513808F058CF8E01035F6C
:100AA0001F4F1E8F0D8F16E0819FC00111249C01E6
:100AB00024583F4F59014E0139E1830E911CED8CB2
:100AC000FE8CA1E0B0E0F701119211927F01F501D7
:100AD000649170E050E040E090E080E0F7013297F0
:100AE0009B01082E02C0359527950A94E2F720FF56
:100AF0001AC0C080D1809D01042E02C0220F331F76
:100B00000A94E2F72C293D296A010FEFC01AD00A96
:100B10008D0102C0000F111FCA94E2F76801202B5B
:100B20003D293183208301964E5F5F4F88309105C8
:100B3000B9F61FEFA11AB10AE814F90421F69E01D3
:100B40002F5F3F4F6901D901ED8DFE8D8081329677
:100B50008C9311968C9311971296E815F905B1F7BD
:100B600088E70E94B20180E40E94DE0136013CE089
:100B7000630E711C7601D7018D917D010E94DE010B
:100B80006E147F04C1F70E94DA018091140191EB89
:100B9000392E380E398E81E28A8F809113018B8F26
:100BA0008FE78C8F88E70E94B20180E00E94DE010F
:100BB0002E01BAE14B0E511C5E01EDE1AE0EB11CEF
:100BC000720103C0D7013D907D01832D0E94DE019B
:100BD000AE14BF04B9F70E94DA01F601AD8DBE8DE7
:100BE00011968C9111971296BE8FAD8F8083818361
:100BF0003296A815B90591F788E70E94B20180E402
:100C00000E94DE01F60181916F010E94DE01C6148F
:100C1000D704C1F70E94DA01109114011055198F01
:100C200080911301845F8B8F88E70E94B20180E07E
:100C30000E94DE0103C0D2011D912D01812F0E946F
:100C4000DE014E145F04B9F70E94DA0180911301AE
:100C5000845F809313017ACEFC018491E1CE80936E
:100C600000010895CF93DF93EC018881882331F050
:100C700021960E94410489918111FBCFDF91CF9190
:100C80000895CF93DF93FC01EC0121968491882392
:100C900039F00E944104FE01849121968111F9CF1F
:100CA000DF91CF9108958FEA0E94930381E091E054
:100CB0000E94320662E080E00E946702FFCFF89453
:020CC000FFCF64
:100CC200015377617468692069737420646F6F6679
:020CD2002100FF
:00000001FF
